:100000000C942A000C94FF0A0C94320B0C94650B90
:100010000C9447000C9447000C9447000C94470044
:100020000C9447000C9447000C9447000C94470034
:100030000C9447000C9447000C9447000C94470024
:100040000C9447000C9447000C9447000C94470014
:100050000C94470011241FBECFE5D8E0DEBFCDBF12
:1000600010E0A0E6B0E0ECEDF4E302C005900D92E4
:10007000AC37B107D9F710E0ACE7B0E001C01D9292
:10008000A438B107E1F70E9492160C946C1A0C94F4
:100090000000EF92FF920F931F937B018C0120E0F1
:1000A00030E040E05FE40E94490388238CF0C801FF
:1000B000B70120E030E040E05FE40E94C1010E940F
:1000C000A9039B01AC01205030404040504806C07D
:1000D000C801B7010E94A9039B01AC01B901CA0183
:1000E0001F910F91FF90EF900895A0E0B0E0EBE733
:1000F000F0E00C94351ADC012B01FA019C9192304E
:1001000008F439C1EB018881823008F433C194309E
:1001100069F4843009F02FC111969C91119789815F
:10012000981709F428C1A0E6B0E025C1843009F48D
:1001300021C18230A9F4923009F01DC19A01AD01AC
:1001400088E0EA010990AE01E90109929E0181501F
:10015000C1F7E201898111969C918923818308C1AD
:10016000923009F407C112962D903C901397EB0141
:100170008A819B811496AD90BD90CD90DC901797AD
:10018000EC80FD800E811F819101281B390BB90184
:1001900037FF04C066277727621B730B6032710537
:1001A0000CF061C0121613066CF537014801062EDB
:1001B00004C096948794779467940A94D2F721E0C8
:1001C00030E040E050E004C0220F331F441F551FB1
:1001D0006A95D2F721503040404050402E213F21B7
:1001E00040235123211531054105510521F021E01E
:1001F00030E040E050E079018A01E628F72808293C
:1002000019293CC0232BD1F1260E371E350146019A
:10021000062E04C096948794779467940A94D2F734
:1002200021E030E040E050E004C0220F331F441FC3
:10023000551F6A95D2F721503040404050402A2146
:100240003B214C215D21211531054105510521F04E
:1002500021E030E040E050E059016A01A628B728CB
:10026000C828D9280BC0821593052CF01C01AA249C
:10027000BB24650103C0EE24FF24870111969C91E5
:10028000D20111968C91981709F445C0992339F041
:10029000A80197012A193B094C095D0906C0A6016E
:1002A00095012E193F09400B510B57FD08C01182D3
:1002B0003382228224833583468357831DC081E0A5
:1002C00081833382228288279927DC01821B930B4A
:1002D000A40BB50B84839583A683B7830DC0220F2F
:1002E000331F441F551F24833583468357838281E0
:1002F000938101979383828324813581468157813D
:10030000DA01C9010197A109B1098F5F9F4FAF4F72
:10031000BF4328F30BC0918333822282EA0CFB1C7B
:100320000C1D1D1DE482F5820683178383E0808304
:10033000248135814681578157FF1AC0C901AA27F8
:1003400097FDA095BA2F81709070A070B0705695EF
:10035000479537952795822B932BA42BB52B848318
:100360009583A683B7838281938101969383828349
:10037000DF0101C0D201CD01CDB7DEB7E2E10C94BF
:10038000511AA0E2B0E0E7ECF1E00C94411A698365
:100390007A838B839C832D833E834F835887E9E048
:1003A000EE2EF12CEC0EFD1ECE010196B7010E943F
:1003B000D2048E010F5E1F4FCE010596B8010E9438
:1003C000D2048A8991E089278A8BC701B801AE01DE
:1003D000475E5F4F0E9475000E94FD03A096E6E015
:1003E0000C945D1AA0E2B0E0E8EFF1E00C94411A41
:1003F00069837A838B839C832D833E834F835887C5
:10040000F9E0EF2EF12CEC0EFD1ECE010196B701A6
:100410000E94D2048E010F5E1F4FCE010596B801D7
:100420000E94D204C701B801AE01475E5F4F0E942F
:1004300075000E94FD03A096E6E00C945D1AA0E210
:10044000B0E0E5E2F2E00C94351A69837A838B839D
:100450009C832D833E834F835887CE010196BE0136
:10046000675F7F4F0E94D204CE010596BE016F5E8A
:100470007F4F0E94D2049985923088F0898982301A
:10048000C8F0943019F4823051F404C0843029F457
:10049000923081F480E690E0C6C0923049F420E0CA
:1004A0009A858A89981321E02A87CE010996BBC0D4
:1004B000823049F420E09A858A89981321E02A8BBA
:1004C000CE014196B0C02D843E844F8458886D88FB
:1004D0007E888F88988CEE24FF248701AA24BB2471
:1004E000650140E050E060E070E0E0E0F0E0C10174
:1004F00081709070892BE9F0E60CF71C081D191D1E
:100500009A01AB012A0D3B1D4C1D5D1D80E090E062
:10051000A0E0B0E0E614F7040805190520F481E036
:1005200090E0A0E0B0E0BA01A901480F591F6A1F8E
:100530007B1FAA0CBB1CCC1CDD1C97FE08C081E0F5
:1005400090E0A0E0B0E0A82AB92ACA2ADB2A3196B6
:10055000E032F10549F0660C771C881C991C569412
:10056000479437942794C3CFFA85EA892B893C892D
:100570008B859C85280F391F2E5F3F4F17C0CA01FE
:1005800081709070892B61F016950795F794E79428
:1005900080E090E0A0E0B0E8E82AF92A0A2B1B2BC3
:1005A00076956795579547952F5F3F4F77FDE7CF36
:1005B0000CC0440F551F661F771F17FD4160EE0CDE
:1005C000FF1C001F111F21503040403090E05907A0
:1005D00090E0690790E4790760F32B8F3C8FDB0193
:1005E000CA018F779070A070B07080349105A1051A
:1005F000B10561F447FD0AC0E114F10401051105DC
:1006000029F0405C5F4F6F4F7F4F40781A8EFE1786
:1006100011F081E08A8F4D8F5E8F6F8F78A383E01A
:10062000898FCE0149960E94FD03A096E2E10C94C9
:10063000511AA8E1B0E0EFE1F3E00C94411A6983AC
:100640007A838B839C832D833E834F83588789E0F5
:10065000E82EF12CEC0EFD1ECE010196B7010E9492
:10066000D2048E010F5E1F4FCE010596B8010E9485
:10067000D2048985823040F08989823028F0C70110
:10068000B8010E944A0501C08FEF6896E6E00C941D
:100690005D1AA8E1B0E0EFE4F3E00C94411A69833D
:1006A0007A838B839C832D833E834F83588789E095
:1006B000E82EF12CEC0EFD1ECE010196B7010E9432
:1006C000D2048E010F5E1F4FCE010596B8010E9425
:1006D000D2048985823040F08989823028F0C701B0
:1006E000B8010E944A0501C08FEF6896E6E00C94BD
:1006F0005D1AA8E1B0E0EFE7F3E00C94411A6983DA
:100700007A838B839C832D833E834F83588789E034
:10071000E82EF12CEC0EFD1ECE010196B7010E94D1
:10072000D2048E010F5E1F4FCE010596B8010E94C4
:10073000D2048985823040F08989823028F0C7014F
:10074000B8010E944A0501C081E06896E6E00C9479
:100750005D1AACE0B0E0EFEAF3E00C94451A69836F
:100760007A838B839C83CE010196BE016B5F7F4FA2
:100770000E94D2048D81823061F1823050F1843048
:1007800021F48E81882351F12EC02F81388537FDC9
:1007900020C06E812F3131051CF06623F9F023C093
:1007A0008EE190E0821B930B29853A854B855C8511
:1007B00004C056954795379527958A95D2F76623B5
:1007C000B1F050954095309521953F4F4F4F5F4F79
:1007D0000EC020E030E040E050E009C02FEF3FEFD6
:1007E0004FEF5FE704C020E030E040E050E8B9019F
:1007F000CA012C96E2E00C94611ADF92EF92FF920C
:100800000F931F93FC01E480F58006811781D1804E
:100810008081823048F480E090E0A0E1B0E0E82AF6
:10082000F92A0A2B1B2BA5C0843009F49FC0823003
:1008300021F4EE24FF24870105C0E114F104010531
:10084000110519F4E0E0F0E096C0628173819FEF3A
:10085000623879070CF05BC022E83FEF261B370BAC
:100860002A3131052CF020E030E040E050E02AC091
:10087000B801A701022E04C0769567955795479554
:100880000A94D2F781E090E0A0E0B0E004C0880FC5
:10089000991FAA1FBB1F2A95D2F70197A109B10979
:1008A0008E219F21A023B1230097A105B10521F03E
:1008B00081E090E0A0E0B0E09A01AB01282B392B59
:1008C0004A2B5B2BDA01C9018F779070A070B07052
:1008D00080349105A105B10539F427FF09C0205CDA
:1008E0003F4F4F4F5F4F04C0215C3F4F4F4F5F4F13
:1008F000E0E0F0E02030A0E03A07A0E04A07A0E402
:100900005A0710F0E1E0F0E079018A0127C0603871
:10091000710564F5FB01E158FF4FD801C7018F77DE
:100920009070A070B07080349105A105B10539F4C4
:10093000E7FE0DC080E490E0A0E0B0E004C08FE3EB
:1009400090E0A0E0B0E0E80EF91E0A1F1B1F17FFA1
:1009500005C016950795F794E794319687E01695AC
:100960000795F794E7948A95D1F705C0EE24FF2404
:100970008701EFEFF0E06E2F679566276795902F60
:100980009F77D794DD24D7948E2F8695492F462BB9
:10099000582F5D29B701CA011F910F91FF90EF9069
:1009A000DF900895FC01DB01408151812281622F9B
:1009B0006F7770E0221F2227221F9381892F880FD3
:1009C000822B282F30E0991F9927991F11969C930D
:1009D000119721153105A9F54115510561057105DD
:1009E00011F482E037C082E89FEF13969C938E93B8
:1009F00012979A01AB0167E0220F331F441F551F66
:100A00006A95D1F783E08C930DC0220F331F441FEA
:100A1000551F12968D919C911397019713969C9355
:100A20008E931297203080E0380780E0480780E4FA
:100A3000580758F314962D933D934D935C93179755
:100A400008952F3F310579F4411551056105710570
:100A500019F484E08C93089564FF03C081E08C93C3
:100A600012C01C9210C02F57304013963C932E9307
:100A7000129783E08C9387E0440F551F661F771F02
:100A80008A95D1F7706414964D935D936D937C9322
:100A9000179708951F93DC01FB019C91923008F495
:100AA00047C08081823008F443C0943051F41196DD
:100AB0001C91843099F58181682F70E0611B710968
:100AC0003FC0843021F0923031F48230B9F181811D
:100AD000882389F12DC011961C9111978230F1F075
:100AE00081811817D9F412962D913C911397828128
:100AF00093818217930794F028173907BCF0149656
:100B00008D919D910D90BC91A02D248135814681C0
:100B10005781281739074A075B0718F4112341F05A
:100B20000AC082179307A407B50740F4112319F0F0
:100B300061E070E005C06FEF7FEF02C060E070E041
:100B4000CB011F910895DF93CF9300D00F92CDB7C3
:100B5000DEB781E08B8380ED90E09A838983E9E2C0
:100B6000F0E089818083E0E4F0E089819A81892F37
:100B700099278083ABE2B0E0EBE2F0E08081826015
:100B80008C931B82AAE2B0E0EAE2F0E08081886107
:100B90008C931B82A0E4B0E0E0E4F0E080818F73EE
:100BA0008C931B82A0E4B0E0E0E4F0E080818F7CD5
:100BB0008C931B82A0E4B0E0E0E4F0E08081877FCA
:100BC0008C931B82A0E4B0E0E0E4F0E080818660DA
:100BD0008C93AAE2B0E0EAE2F0E080818B7F8C9314
:100BE0001B828B810F900F900F90CF91DF91089512
:100BF000DF93CF930F92CDB7DEB78983EBE2F0E0BE
:100C00008081829586958770882F90E081709070A2
:100C10000097A1F3ECE2F0E08981808380E00F90FF
:100C2000CF91DF910895DF93CF9300D0CDB7DEB79A
:100C30009A838983EBE2F0E080818823DCF7ECE2A1
:100C4000F0E08081E981FA81808380E00F900F904D
:100C5000CF91DF910895DF93CF9300D00F92CDB75E
:100C6000DEB79B838A8381E0898318C0EBE2F0E0E2
:100C70008081829586958770882F90E08170907032
:100C80000097A1F3ACE2B0E0EA81FB8180818C9314
:100C90008A819B8101969B838A831982EA81FB81E9
:100CA0008081882319F789810F900F900F90CF9141
:100CB000DF910895DF93CF9300D000D00F92CDB78E
:100CC000DEB79D838C8381E08A838C819D81009730
:100CD00019F1198211C0CE0103960E941306898171
:100CE000282F30E08C819D81FC01E20FF31F8B8166
:100CF000808389818F5F89838B818D3061F78981C2
:100D0000882F90E09C01215030408C819D81FC0116
:100D1000E20FF31F10821A828A810F900F900F90BA
:100D20000F900F90CF91DF910895DF93CF93CDB7C0
:100D3000DEB7ADE2B0E0EDE2F0E0808180688C9358
:100D4000ADE2B0E0EDE2F0E0808180628C93ADE254
:100D5000B0E0EDE2F0E0808180618C93ADE2B0E044
:100D6000EDE2F0E08081877F8C93ADE2B0E0EDE2D0
:100D7000F0E080818B7F8C93ADE2B0E0EDE2F0E0BB
:100D8000808183608C93ADE2B0E0EDE2F0E08081A1
:100D900080648C9380E0CF91DF910895DF93CF93AF
:100DA0000F92CDB7DEB78983EFE2F0E089818083CF
:100DB000EEE2F0E08081882F90E09695982F8827CA
:100DC000979587950097A1F380E00F90CF91DF91E1
:100DD0000895DF93CF9300D0CDB7DEB79A83898390
:100DE000EEE2F0E08081882F90E09695982F88279A
:100DF000979587950097A1F3EFE2F0E08081E98174
:100E0000FA81808380E00F900F90CF91DF91089559
:100E1000DF93CF930F92CDB7DEB78983EFE2F0E097
:100E200089818083EEE2F0E080818823DCF7EFE2C5
:100E3000F0E080810F90CF91DF910895DF93CF9301
:100E4000CDB7DEB7F89480E0CF91DF910895DF93BE
:100E5000CF93CDB7DEB7789480E0CF91DF9108953E
:100E6000DF93CF93CDB7DEB7F89480E0CF91DF91D9
:100E70000895DF93CF9300D000D0CDB7DEB79C8329
:100E80008B8381E08A838B819C81009709F421C246
:100E90001A8219821AC28981282F30E0C901880F6D
:100EA000991F280F391F8B819C81FC01E20FF31FD2
:100EB0008081882341F4ABE5B0E0EBE5F0E0808190
:100EC00080648C9333C08981282F30E0C901880F5A
:100ED000991F280F391F8B819C81FC01E20FF31FA2
:100EE0008081813041F4ABE5B0E0EBE5F0E080815A
:100EF00080688C931BC08981282F30E0C901880F3E
:100F0000991F280F391F8B819C81FC01E20FF31F71
:100F10008081823041F4ABE5B0E0EBE5F0E0808128
:100F200080628C9303C082E08A83D3C18981282F99
:100F300030E0C901880F991F280F391F8B819C81D0
:100F4000FC01E20FF31F81818F3041F4AAE5B0E08C
:100F5000EAE5F0E0808180648C931BC08981282FB2
:100F600030E0C901880F991F280F391F8B819C81A0
:100F7000FC01E20FF31F8181803141F4AAE5B0E06A
:100F8000EAE5F0E080818F7B8C9303C082E08A8366
:100F9000A0C18981282F30E0C901880F991F280F2F
:100FA000391F8B819C81FC01E20FF31F8081882314
:100FB000C1F48981282F30E0C901880F991F280FBB
:100FC000391F8B819C81FC01E20FF31F82818B30E2
:100FD00041F4A5E5B0E0E5E5F0E080818C7F8C93FD
:100FE0007BC08981282F30E0C901880F991F280F05
:100FF000391F8B819C81FC01E20FF31F80818823C4
:10100000C1F48981282F30E0C901880F991F280F6A
:10101000391F8B819C81FC01E20FF31F82818C3090
:1010200041F4A5E5B0E0E5E5F0E0808181608C93D6
:1010300053C08981282F30E0C901880F991F280FDC
:10104000391F8B819C81FC01E20FF31F8081882373
:10105000C1F48981282F30E0C901880F991F280F1A
:10106000391F8B819C81FC01E20FF31F82818D303F
:1010700041F4A5E5B0E0E5E5F0E0808183608C9384
:101080002BC08981282F30E0C901880F991F280FB4
:10109000391F8B819C81FC01E20FF31F8081882323
:1010A000C1F48981282F30E0C901880F991F280FCA
:1010B000391F8B819C81FC01E20FF31F82818E30EE
:1010C00041F4A5E5B0E0E5E5F0E0808182608C9335
:1010D00003C082E08A83FDC08981282F30E0C901E6
:1010E000880F991F280F391F8B819C81FC01E20F0B
:1010F000F31F80818130C1F48981282F30E0C9013C
:10110000880F991F280F391F8B819C81FC01E20FEA
:10111000F31F82818B3041F4A5E5B0E0E5E5F0E016
:101120008081837F8C937BC08981282F30E0C90127
:10113000880F991F280F391F8B819C81FC01E20FBA
:10114000F31F80818130C1F48981282F30E0C901EB
:10115000880F991F280F391F8B819C81FC01E20F9A
:10116000F31F82818C3041F4A5E5B0E0E5E5F0E0C5
:10117000808184608C9353C08981282F30E0C9011D
:10118000880F991F280F391F8B819C81FC01E20F6A
:10119000F31F80818130C1F48981282F30E0C9019B
:1011A000880F991F280F391F8B819C81FC01E20F4A
:1011B000F31F82818D3041F4A5E5B0E0E5E5F0E074
:1011C00080818C608C932BC08981282F30E0C901ED
:1011D000880F991F280F391F8B819C81FC01E20F1A
:1011E000F31F80818130C1F48981282F30E0C9014B
:1011F000880F991F280F391F8B819C81FC01E20FFA
:10120000F31F82818E3041F4A5E5B0E0E5E5F0E022
:10121000808188608C9303C082E08A835AC0898170
:10122000282F30E0C901880F991F280F391F8B81A3
:101230009C81FC01E20FF31F80818230C1F489811F
:10124000282F30E0C901880F991F280F391F8B8183
:101250009C81FC01E20FF31F82818E3041F4A4E5F2
:10126000B0E0E4E5F0E080818F7B8C932BC0898136
:10127000282F30E0C901880F991F280F391F8B8153
:101280009C81FC01E20FF31F80818230C1F48981CF
:10129000282F30E0C901880F991F280F391F8B8133
:1012A0009C81FC01E20FF31F82818D3041F4A4E5A3
:1012B000B0E0E4E5F0E0808180648C9303C082E0DC
:1012C0008A8307C089818F5F89838981882309F494
:1012D000E2CD8A810F900F900F900F90CF91DF9108
:1012E0000895DF93CF9300D00F92CDB7DEB79B83E5
:1012F0008A8381E089838A819B81009751F11982D9
:10130000EA81FB818081882341F4ABE5B0E0EBE525
:10131000F0E0808180648C931CC0EA81FB81808135
:10132000813041F4ABE5B0E0EBE5F0E0808180682E
:101330008C930FC0EA81FB818081823041F4ABE560
:10134000B0E0EBE5F0E0808180628C9302C082E047
:10135000898389810F900F900F90CF91DF9108952D
:10136000DF93CF9300D00F92CDB7DEB79B838A83F4
:1013700081E089838A819B81009751F11982EA81FA
:10138000FB818081882341F4ABE5B0E0EBE5F0E040
:1013900080818F7B8C931CC0EA81FB8180818130AE
:1013A00041F4ABE5B0E0EBE5F0E080818F778C9322
:1013B0000FC0EA81FB818081823041F4ABE5B0E06F
:1013C000EBE5F0E080818F7D8C9302C082E0898321
:1013D00089810F900F900F90CF91DF910895DF9347
:1013E000CF93CDB7DEB72A970FB6F894DEBF0FBE06
:1013F000CDBF9B838A836C8381E089838A819B81B3
:10140000009709F01982EA81FB818081882309F025
:1014100043C08C81282F30E03A87298789859A85B7
:101420008C309105F1F029853A852D30310534F461
:1014300089859A858B30910561F02BC029853A8585
:101440002D303105B1F089859A858E309105C9F02E
:1014500020C0A5E5B0E0E5E5F0E080818C7F8C93CD
:101460008EC0A5E5B0E0E5E5F0E0808181608C9379
:1014700086C0A5E5B0E0E5E5F0E0808183608C936F
:101480007EC0A5E5B0E0E5E5F0E0808182608C9368
:1014900076C082E0898373C0EA81FB8180818130DC
:1014A00009F043C08C81282F30E038872F838F814B
:1014B00098858C309105F1F02F8138852D303105DC
:1014C00034F48F8198858B30910561F02BC02F818A
:1014D00038852D303105B1F08F8198858E3091059A
:1014E000C9F020C0A5E5B0E0E5E5F0E08081837FAC
:1014F0008C9345C0A5E5B0E0E5E5F0E0808184602F
:101500008C933DC0A5E5B0E0E5E5F0E080818C601E
:101510008C9335C0A5E5B0E0E5E5F0E0808188601A
:101520008C932DC082E089832AC0EA81FB8180816F
:10153000823019F58C81282F30E03E832D838D81F8
:101540009E818D30910531F02D813E812E30310507
:1015500049F010C0A4E5B0E0E4E5F0E080818064EB
:101560008C930DC0A4E5B0E0E4E5F0E080818F7BD2
:101570008C9305C082E0898302C082E089838981DF
:101580002A960FB6F894DEBF0FBECDBFCF91DF9184
:101590000895DF93CF9300D0CDB7DEB79A838983C8
:1015A00089819A8190937D0080937C000F900F90A9
:1015B000CF91DF910895DF93CF9300D0CDB7DEB701
:1015C0009A83898389819A8190937F0080937E009A
:1015D0000F900F90CF91DF910895DF93CF9300D0BC
:1015E000CDB7DEB79A83898389819A8190938100F0
:1015F000809380000F900F90CF91DF9108951F92FC
:101600000F920FB60F9211242F933F934F935F9336
:101610006F937F938F939F93AF93BF93EF93FF93BA
:10162000DF93CF93CDB7DEB780917C0090917D00A2
:10163000009729F0E0917C00F0917D000995CF9111
:10164000DF91FF91EF91BF91AF919F918F917F912A
:101650006F915F914F913F912F910F900FBE0F901F
:101660001F9018951F920F920FB60F9211242F936F
:101670003F934F935F936F937F938F939F93AF931A
:10168000BF93EF93FF93DF93CF93CDB7DEB78091F6
:101690007E0090917F00009729F0E0917E00F0910C
:1016A0007F000995CF91DF91FF91EF91BF91AF91AD
:1016B0009F918F917F916F915F914F913F912F916A
:1016C0000F900FBE0F901F9018951F920F920FB69C
:1016D0000F9211242F933F934F935F936F937F93B8
:1016E0008F939F93AF93BF93EF93FF93DF93CF932A
:1016F000CDB7DEB78091800090918100009729F0EE
:10170000E0918000F09181000995CF91DF91FF91E8
:10171000EF91BF91AF919F918F917F916F915F9169
:101720004F913F912F910F900FBE0F901F901895E2
:10173000DF93CF930F92CDB7DEB781E08983AAE321
:10174000B0E0EAE3F0E080818E7F8C9389810F9096
:10175000CF91DF910895DF93CF9300D000D000D0D8
:10176000CDB7DEB78A836B834C8381E089838A811E
:10177000843008F0D0C08B81883008F0CCC08C81D8
:10178000823008F0C8C08A81282F30E03E832D8344
:101790006D817E816130710509F441C08D819E812A
:1017A0008230910534F42D813E812115310571F08F
:1017B000B0C06D817E816230710509F459C08D81A0
:1017C0009E818330910509F47CC0A3C0AAE3B0E0F8
:1017D000EAE3F0E08081482F8B81282F30E081E020
:1017E00090E002C0880F991F2A95E2F78095842324
:1017F0008C93AAE3B0E0EAE3F0E08081482F8C818B
:10180000282F30E08B81882F90E0B90102C0660F4D
:10181000771F8A95E2F7CB01842B8C937AC0A7E3DC
:10182000B0E0E7E3F0E08081482F8B81282F30E0A3
:1018300081E090E002C0880F991F2A95E2F7809519
:1018400084238C93A7E3B0E0E7E3F0E08081482FA6
:101850008C81282F30E08B81882F90E0B90102C065
:10186000660F771F8A95E2F7CB01842B8C9351C0CA
:10187000A4E3B0E0E4E3F0E08081482F8B81282FDF
:1018800030E081E090E002C0880F991F2A95E2F7CE
:10189000809584238C93A4E3B0E0E4E3F0E08081BE
:1018A000482F8C81282F30E08B81882F90E0B90160
:1018B00002C0660F771F8A95E2F7CB01842B8C93C9
:1018C00028C0A1E3B0E0E1E3F0E08081482F8B8104
:1018D000282F30E081E090E002C0880F991F2A9500
:1018E000E2F7809584238C93A1E3B0E0E1E3F0E09C
:1018F0008081482F8C81282F30E08B81882F90E0C9
:10190000B90102C0660F771F8A95E2F7CB01842BDD
:101910008C93198202C082E08983898126960FB652
:10192000F894DEBF0FBECDBFCF91DF910895DF9356
:10193000CF9300D000D000D0CDB7DEB78A836B83C1
:101940004C8381E089838A81843008F0D0C08B8108
:10195000883008F0CCC08C81823008F0C8C08A8101
:10196000282F30E03E832D836D817E8161307105AB
:1019700009F441C08D819E818230910534F42D811E
:101980003E812115310571F0B0C06D817E816230DC
:10199000710509F459C08D819E818330910509F448
:1019A0007CC0A3C0ABE3B0E0EBE3F0E08081482F64
:1019B0008B81282F30E081E090E002C0880F991FD2
:1019C0002A95E2F7809584238C93ABE3B0E0EBE3B8
:1019D000F0E08081482F8C81282F30E08B81882F88
:1019E00090E0B90102C0660F771F8A95E2F7CB013C
:1019F000842B8C937AC0A8E3B0E0E8E3F0E0808128
:101A0000482F8B81282F30E081E090E002C0880FC2
:101A1000991F2A95E2F7809584238C93A8E3B0E080
:101A2000E8E3F0E08081482F8C81282F30E08B8123
:101A3000882F90E0B90102C0660F771F8A95E2F700
:101A4000CB01842B8C9351C0A5E3B0E0E5E3F0E03B
:101A50008081482F8B81282F30E081E090E002C008
:101A6000880F991F2A95E2F7809584238C93A5E32C
:101A7000B0E0E5E3F0E08081482F8C81282F30E052
:101A80008B81882F90E0B90102C0660F771F8A957D
:101A9000E2F7CB01842B8C9328C0A2E3B0E0E2E311
:101AA000F0E08081482F8B81282F30E081E090E0AA
:101AB00002C0880F991F2A95E2F7809584238C93A2
:101AC000A2E3B0E0E2E3F0E08081482F8C81282F90
:101AD00030E08B81882F90E0B90102C0660F771F3C
:101AE0008A95E2F7CB01842B8C93198202C082E0A5
:101AF0008983898126960FB6F894DEBF0FBECDBFCD
:101B0000CF91DF910895DF93CF9300D000D00F9253
:101B1000CDB7DEB78A836B8381E089838A81843085
:101B200008F074C08B81883008F070C08A81282F3B
:101B300030E03D832C838C819D818130910549F17A
:101B40002C813D81223031052CF48C819D810097C0
:101B500061F05AC02C813D812230310571F18C81B8
:101B60009D8183309105E9F14FC0ABE3B0E0EBE339
:101B7000F0E08081482F8B81282F30E081E090E0D9
:101B8000022E02C0880F991F0A94E2F784278C93D3
:101B90003BC0A8E3B0E0E8E3F0E08081482F8B8110
:101BA000282F30E081E090E0022E02C0880F991FBC
:101BB0000A94E2F784278C9327C0A5E3B0E0E5E31D
:101BC000F0E08081482F8B81282F30E081E090E089
:101BD000022E02C0880F991F0A94E2F784278C9383
:101BE00013C0A2E3B0E0E2E3F0E08081482F8B81F4
:101BF000282F30E081E090E0022E02C0880F991F6C
:101C00000A94E2F784278C93198202C082E08983C8
:101C100089810F900F900F900F900F90CF91DF91CF
:101C20000895DF93CF93CDB7DEB727970FB6F8941B
:101C3000DEBF0FBECDBF8A836B835D834C8381E0A3
:101C400089838C819D81009709F47DC08A818430CD
:101C500008F076C08B81883008F072C08A81282F06
:101C600030E03F832E834E815F814130510559F131
:101C70008E819F818230910534F42E813F81211520
:101C8000310569F05BC04E815F814230510579F1C9
:101C90008E819F818330910509F43DC04FC0E9E3F7
:101CA000F0E08081282F30E08B81882F90E0A9011F
:101CB00002C0559547958A95E2F7CA018170EC817B
:101CC000FD8180833BC0E6E3F0E08081282F30E097
:101CD0008B81882F90E0A90102C0559547958A9580
:101CE000E2F7CA018170EC81FD81808327C0E3E3C4
:101CF000F0E08081282F30E08B81882F90E0A901CF
:101D000002C0559547958A95E2F7CA018170EC812A
:101D1000FD81808313C0E0E3F0E08081282F30E074
:101D20008B81882F90E0A90102C0559547958A952F
:101D3000E2F7CA018170EC81FD818083198205C0C0
:101D400082E0898302C083E08983898127960FB668
:101D5000F894DEBF0FBECDBFCF91DF910895DF9322
:101D6000CF930F92CDB7DEB71982A7E2B0E0E7E2DA
:101D7000F0E0808180648C93A7E2B0E0E7E2F0E0DD
:101D8000808180628C93A6E2B0E0E6E2F0E08081A0
:101D900087608C93A6E2B0E0E6E2F0E080818068A4
:101DA0008C93A6E2B0E0E6E2F0E080818F7D8C9338
:101DB00089810F90CF91DF910895DF93CF9300D069
:101DC000CDB7DEB78A8381E089838A818830B8F411
:101DD000A6E2B0E0E6E2F0E0808180648C93A7E2C6
:101DE000B0E0E7E2F0E08081887F8C93A7E2B0E08A
:101DF000E7E2F0E090818A81892B8C9319828981B6
:101E00000F900F90CF91DF910895DF93CF9300D083
:101E10000F92CDB7DEB79B838A8381E08983E6E2A8
:101E2000F0E080818295869586958370882F90E07A
:101E300081709070882399F7E4E2F0E080818295C8
:101E4000869586958370882F90E0EA81FB81918347
:101E50008083EA81FB8120813181E5E2F0E08081AD
:101E6000882F90E0880F991F880F991F822B932B42
:101E7000EA81FB8191838083198289810F900F9081
:101E80000F90CF91DF910895DF93CF9300D0CDB71E
:101E9000DEB78A8381E089838A81883050F5A6E2A3
:101EA000B0E0E6E2F0E080818F7D8C93A6E2B0E0C6
:101EB000E6E2F0E0808180628C93A0E5B0E0E0E5AE
:101EC000F0E080818F718C93A0E5B0E0E0E5F0E078
:101ED0008081282F8A81882F90E0880F991F829512
:101EE0009295907F9827807F9827822B8C931982D8
:101EF00002C082E0898389810F900F90CF91DF919A
:101F00000895DF93CF93CDB7DEB7A6E2B0E0E6E267
:101F1000F0E080818F7D8C9380E0CF91DF910895F8
:101F2000DF93CF93CDB7DEB7A6E2B0E0E6E2F0E014
:101F30008081877F8C93A6E2B0E0E6E2F0E08081CA
:101F400088608C9381E0CF91DF910895DF93CF93E8
:101F5000CDB7DEB7A6E2B0E0E6E2F0E08081877FB1
:101F60008C9381E0CF91DF910895DF93CF9300D0E0
:101F7000CDB7DEB79A83898389819A819093830054
:101F80008093820080E00F900F90CF91DF910895B1
:101F90001F920F920FB60F9211242F933F934F93DE
:101FA0005F936F937F938F939F93AF93BF93EF93C1
:101FB000FF93DF93CF9300D0CDB7DEB7809182003F
:101FC00090918300009729F0E0918200F0918300C6
:101FD00009950F900F90CF91DF91FF91EF91BF91F5
:101FE000AF919F918F917F916F915F914F913F91B1
:101FF0002F910F900FBE0F901F901895DF93CF93E6
:10200000CDB7DEB76D970FB6F894DEBF0FBECDBF6C
:102010008D8F8D8D982F991F9927991F80E067E0EC
:10202000492F0E94970C8D8D829586958695837099
:10203000982F917080E066E0492F0E94970C8D8D5B
:10204000829586958770982F917080E065E0492F82
:102050000E94970C8D8D82958F70982F917081E0E2
:1020600064E0492F0E94970C81E063E041E00E9408
:10207000970C81E063E040E00E94970C8D8D86957F
:1020800086958695982F917080E067E0492F0E9491
:10209000970C8D8D86958695982F917080E066E0DF
:1020A000492F0E94970C8D8D8695982F917080E016
:1020B00065E0492F0E94970C8D8D982F917081E0DB
:1020C00064E0492F0E94970C81E063E041E00E94A8
:1020D000970C80E090E0A0EAB0E4898F9A8FAB8FF4
:1020E000BC8F698D7A8D8B8D9C8D20E030E04AE726
:1020F00055E40E941F02DC01CB018D8B9E8BAF8BC0
:10210000B88F6D897E898F89988D20E030E040E816
:102110005FE30E94790388232CF481E090E09C8B9C
:102120008B8B3FC06D897E898F89988D20E03FEF32
:102130004FE757E40E94190318164CF5698D7A8D04
:102140008B8D9C8D20E030E040E251E40E941F0224
:10215000DC01CB01BC01CD010E944900DC01CB01B7
:102160009C8B8B8B0FC080E991E09A8B898B89893E
:102170009A890197F1F79A8B898B8B899C890197B2
:102180009C8B8B8B8B899C89009769F714C06D8918
:102190007E898F89988D0E944900DC01CB019C8B40
:1021A0008B8B8B899C89988B8F878F8598890197DA
:1021B000F1F7988B8F8781E063E040E00E94970CF5
:1021C00080E090E0A0EAB0E48B879C87AD87BE8773
:1021D0006B857C858D859E8520E030E04AE755E45F
:1021E0000E941F02DC01CB018F839887A987BA87E1
:1021F0006F81788589859A8520E030E040E85FE34B
:102200000E94790388232CF481E090E09E838D83E3
:102210003FC06F81788589859A8520E03FEF4FE741
:1022200057E40E94190318164CF56B857C858D8543
:102230009E8520E030E040E251E40E941F02DC0174
:10224000CB01BC01CD010E944900DC01CB019E8382
:102250008D830FC080E991E09C838B838B819C816F
:102260000197F1F79C838B838D819E8101979E83DB
:102270008D838D819E81009769F714C06F81788569
:1022800089859A850E944900DC01CB019E838D835C
:102290008D819E819A83898389819A810197F1F743
:1022A0009A83898380E06D960FB6F894DEBF0FBEE7
:1022B000CDBFCF91DF910895DF93CF93CDB7DEB738
:1022C000E8970FB6F894DEBF0FBECDBF80E090E078
:1022D000ACE0B2E48DAB9EABAFABB8AF6DA97EA95D
:1022E0008FA998AD20E030E04AE755E40E941F0234
:1022F000DC01CB0189AB9AABABABBCAB69A97AA9CA
:102300008BA99CA920E030E040E85FE30E947903BC
:1023100088232CF481E090E098AB8FA73FC069A997
:102320007AA98BA99CA920E03FEF4FE757E40E94D0
:10233000190318164CF56DA97EA98FA998AD20E058
:1023400030E040E251E40E941F02DC01CB01BC01FD
:10235000CD010E944900DC01CB0198AB8FA70FC0D3
:1023600080E991E09EA78DA78DA59EA50197F1F725
:102370009EA78DA78FA598A9019798AB8FA78FA52A
:1023800098A9009769F714C069A97AA98BA99CA993
:102390000E944900DC01CB0198AB8FA78FA598A9BB
:1023A0009CA78BA78BA59CA50197F1F79CA78BA752
:1023B00081E061E041E00E94AB0B81E062E041E03E
:1023C0000E94AB0B81E063E041E00E94AB0B80E038
:1023D00067E041E00E94AB0B80E066E041E00E94D4
:1023E000AB0B80E065E041E00E94AB0B81E064E074
:1023F00041E00E94AB0B81E061E040E00E94970C5D
:1024000081E062E040E00E94970C81E063E040E000
:102410000E94970C80E067E040E00E94970C80E00B
:1024200066E040E00E94970C80E065E041E00E9499
:10243000970C81E064E040E00E94970C81E063E04B
:1024400041E00E94970C80E090E0A0EAB0E48FA306
:1024500098A7A9A7BAA76FA178A589A59AA520E0F2
:1024600030E04AE755E40E941F02DC01CB018BA358
:102470009CA3ADA3BEA36BA17CA18DA19EA120E0D6
:1024800030E040E85FE30E94790388232CF481E088
:1024900090E09AA389A33FC06BA17CA18DA19EA1CE
:1024A00020E03FEF4FE757E40E94190318164CF560
:1024B0006FA178A589A59AA520E030E040E251E41B
:1024C0000E941F02DC01CB01BC01CD010E9449002A
:1024D000DC01CB019AA389A30FC080E991E098A306
:1024E0008F8F8F8D98A10197F1F798A38F8F89A176
:1024F0009AA101979AA389A389A19AA1009769F744
:1025000014C06BA17CA18DA19EA10E944900DC0199
:10251000CB019AA389A389A19AA19E8F8D8F8D8DBE
:102520009E8D0197F1F79E8F8D8F81E063E040E0F3
:102530000E94970C80E090E0A0EAB0E4898F9A8F27
:10254000AB8FBC8F698D7A8D8B8D9C8D20E030E0B8
:102550004AE755E40E941F02DC01CB018D8B9E8B64
:10256000AF8BB88F6D897E898F89988D20E030E0A0
:1025700040E85FE30E94790388232CF481E090E037
:102580009C8B8B8B3FC06D897E898F89988D20E0D5
:102590003FEF4FE757E40E94190318164CF5698D79
:1025A0007A8D8B8D9C8D20E030E040E251E40E94DA
:1025B0001F02DC01CB01BC01CD010E944900DC01FE
:1025C000CB019C8B8B8B0FC080E991E09A8B898B20
:1025D00089899A890197F1F79A8B898B8B899C89D4
:1025E00001979C8B8B8B8B899C89009769F714C012
:1025F0006D897E898F89988D0E944900DC01CB010D
:102600009C8B8B8B8B899C89988B8F878F859889E6
:102610000197F1F7988B8F8788E20E94FE0F8FE079
:102620000E94FE0F81E00E94FE0F86E00E94FE0FD6
:1026300080E090E0A0EAB0E48B879C87AD87BE87FE
:102640006B857C858D859E8520E030E04AE755E4EA
:102650000E941F02DC01CB018F839887A987BA876C
:102660006F81788589859A8520E030E040E85FE3D6
:102670000E94790388232CF481E090E09E838D836F
:102680003FC06F81788589859A8520E03FEF4FE7CD
:1026900057E40E94190318164CF56B857C858D85CF
:1026A0009E8520E030E040E251E40E941F02DC0100
:1026B000CB01BC01CD010E944900DC01CB019E830E
:1026C0008D830FC080E991E09C838B838B819C81FB
:1026D0000197F1F79C838B838D819E8101979E8367
:1026E0008D838D819E81009769F714C06F817885F5
:1026F00089859A850E944900DC01CB019E838D83E8
:102700008D819E819A83898389819A810197F1F7CE
:102710009A83898380E0E8960FB6F894DEBF0FBEF7
:10272000CDBFCF91DF910895DF93CF930F92CDB7B7
:10273000DEB7898381E061E040E00E94970C8981E7
:102740000E94FE0F80E00F90CF91DF910895DF93FC
:10275000CF930F92CDB7DEB7898381E061E041E08E
:102760000E94970C89810E94FE0F80E00F90CF910C
:10277000DF910895DF93CF9300D0CDB7DEB79A8372
:10278000898310C081E061E041E00E94970CE981FB
:10279000FA81208189819A8101969A838983822F87
:1027A0000E94FE0FE981FA818081882359F780E039
:1027B0000F900F90CF91DF910895DF93CF9300D0CA
:1027C0000F92CDB7DEB78A836B8381E089838A81DC
:1027D000882311F18A818330F8F48B818823E1F01A
:1027E0008B818131C8F481E061E040E00E94970C68
:1027F0008A81882F90E00197002496958795079409
:10280000969587950794982F802D982F8B81890F07
:1028100081580E94FE0F198289810F900F900F90AE
:10282000CF91DF910895DF93CF93CDB7DEB72E9789
:102830000FB6F894DEBF0FBECDBF98878F832DB73C
:102840003EB73E872D8781E08C838F8198850097E6
:1028500009F47DC08DB79EB79A8789871B828F81C7
:1028600098859A8389830DC08F8198852AE030E00E
:10287000B9010E940E1ACB0198878F838B818F5FDD
:102880008B838F819885009779F78B81882F90E0D3
:102890002DB73EB7281B390B0FB6F8943EBF0FBEBD
:1028A0002DBF8DB79EB701969C878B878B859C85A6
:1028B00000969C878B872B853C853E832D8320C08B
:1028C0008B81882F90E0FC01319789819A812AE0E1
:1028D00030E0B9010E94221A282F205D8D819E814F
:1028E000E80FF91F208389819A812AE030E0B9013D
:1028F0000E94221ACB019A8389838B8181508B831A
:102900008B818823E9F60FC08B81282F30E08D81E1
:102910009E81FC01E20FF31F90818B818F5F8B837F
:10292000892F0E94A7138B81282F30E08D819E81F3
:10293000FC01E20FF31F8081882331F71C82898517
:102940009A850FB6F8949EBF0FBE8DBF04C080E37A
:102950000E94A7131C828C812D853E850FB6F894AA
:102960003EBF0FBE2DBF2E960FB6F894DEBF0FBE32
:10297000CDBFCF91DF910895DF93CF930F92CDB765
:10298000DEB781E0898382E060E040E00E94AB0B2B
:1029900082E061E040E00E94AB0B82E062E040E058
:1029A0000E94AB0B82E063E040E00E94AB0B83E04F
:1029B00060E041E00E94AB0B83E061E041E00E94F7
:1029C000AB0B83E062E041E00E94AB0B83E064E08C
:1029D00041E00E94AB0B82E060E041E00E94970C76
:1029E00082E061E041E00E94970C82E062E041E019
:1029F0000E94970C82E063E041E00E94970C83E024
:102A000060E041E00E94970C83E061E041E00E94B9
:102A1000970C83E062E041E00E94970C83E064E061
:102A200041E00E94970C89810F90CF91DF9108952A
:102A3000DF93CF93CDB7DEB7E9970FB6F894DEBF3B
:102A40000FBECDBF9CAB8BAB81E0898B82E08A8BC4
:102A500082E08B8B82E08C8B82E08D8B1E8A81E002
:102A60008F8B82E0888F83E0898F83E08A8F83E079
:102A70008B8F83E08C8F83E08D8F1E8E81E08F8F14
:102A800082E088A384E089A3EBA9FCA98FEF80836F
:102A9000CE0182969EAB8DABEBE6F0E0F8AFEFABEC
:102AA000F0E1F9AFEFA9F8AD00808FA998AD0196DC
:102AB00098AF8FABEDA9FEA900828DA99EA90196C2
:102AC0009EAB8DAB99AD915099AFE9ADEE2351F727
:102AD000188A1F861F8618C18F85282F30E0CE01E7
:102AE0004A96FC01E20FF31F40818F85282F30E0CA
:102AF000CE014E96FC01E20FF31F9081842F692FC7
:102B000040E00E94970C188AE0C08889282F30E0A6
:102B1000CE014296FC01E20FF31F40818889282FE5
:102B200030E0CE014696FC01E20FF31F90819E013A
:102B30002E5C3F4F842F692FA9010E94110E8AA994
:102B4000882309F088C080E090E0A0E2B1E48B87A0
:102B50009C87AD87BE876B857C858D859E8520E0B3
:102B600030E04AE755E40E941F02DC01CB018F836D
:102B70009887A987BA876F81788589859A8520E0AB
:102B800030E040E85FE30E94790388232CF481E081
:102B900090E09E838D833FC06F81788589859A857B
:102BA00020E03FEF4FE757E40E94190318164CF559
:102BB0006B857C858D859E8520E030E040E251E488
:102BC0000E941F02DC01CB01BC01CD010E94490023
:102BD000DC01CB019E838D830FC080E991E09C8353
:102BE0008B838B819C810197F1F79C838B838D81F3
:102BF0009E8101979E838D838D819E81009769F7C9
:102C000014C06F81788589859A850E944900DC010E
:102C1000CB019E838D838D819E819A838983898157
:102C20009A810197F1F79A8389838889282F30E068
:102C30008F85482F50E0220F331F220F331FCE0104
:102C40000196820F931F840F951FFC01B19680811E
:102C5000EBA9FCA980838AA9882389F58889282F74
:102C600030E08F85482F50E0220F331F220F331F93
:102C7000CE010196820F931F840F951FFC01B19620
:102C80008081EBA9FCA980831AC08889282F30E0B5
:102C9000CE014296FC01E20FF31F40818889282F64
:102CA00030E0CE014696FC01E20FF31F90819E01B9
:102CB0002E5C3F4F842F692FA9010E94110E8AA913
:102CC000882319F388898F5F888B8889843008F47A
:102CD0001CCF8F85282F30E0CE014A96FC01E20FF1
:102CE000F31F40818F85282F30E0CE014E96FC01E6
:102CF000E20FF31F9081842F692F41E00E94970C0F
:102D0000198A8F858F5F8F878F85843008F4E4CE92
:102D10008989E9960FB6F894DEBF0FBECDBFCF917B
:102D2000DF9108950F931F93DF93CF93CDB7DEB755
:102D3000CE55D0400FB6F894DEBF0FBECDBF0E9477
:102D4000AF0E0E945C118CE090E00E94941380E032
:102D500090E00E94DD0ECE018B5A9F4F0E94050F1E
:102D6000FE01EF5AFF4F80E090E0A8E4B2E48083D8
:102D70009183A283B3838E01035B1F4FFE01EF5A41
:102D8000FF4F608171818281938120E030E04AE7CA
:102D900055E40E941F02DC01CB01F801808391837E
:102DA000A283B383FE01E35BFF4F60817181828167
:102DB000938120E030E040E85FE30E9479038823BC
:102DC00044F4FE01E55BFF4F81E090E09183808356
:102DD00064C0FE01E35BFF4F60817181828193815A
:102DE00020E03FEF4FE757E40E94190318160CF05C
:102DF00043C0FE01EF5AFF4F608171818281938150
:102E000020E030E040E251E40E941F02DC01CB01EF
:102E10008E01055B1F4FBC01CD010E944900DC0102
:102E2000CB01F801918380831FC0FE01E75BFF4F58
:102E300080E991E091838083FE01E75BFF4F808111
:102E400091810197F1F7FE01E75BFF4F918380834A
:102E5000DE01A55BBF4FFE01E55BFF4F80819181E5
:102E6000019711969C938E93FE01E55BFF4F808145
:102E700091810097D1F627C08E01055B1F4FFE019F
:102E8000E35BFF4F60817181828193810E944900E1
:102E9000DC01CB01F80191838083DE01A95BBF4F88
:102EA000FE01E55BFF4F808191818D939C93FE0134
:102EB000E95BFF4F808191810197F1F7FE01E95BAA
:102EC000FF4F9183808381E090E00E94DD0ECE0170
:102ED000895A9F4F0E94050FFE01ED5BFF4F80E076
:102EE00090E0A8E4B2E480839183A283B3838E014F
:102EF000015C1F4FFE01ED5BFF4F6081718182819C
:102F0000938120E030E04AE755E40E941F02DC0193
:102F1000CB01F80180839183A283B383FE01FF96E6
:102F2000608171818281938120E030E040E85FE33D
:102F30000E94790388232CF481E090E09EAF8DAF4E
:102F400046C0FE01FF96608171818281938120E0FD
:102F50003FEF4FE757E40E941903181664F5FE018E
:102F6000ED5BFF4F608171818281938120E030E0D1
:102F700040E251E40E941F02DC01CB01BC01CD0103
:102F80000E944900DC01CB019EAF8DAF0FC080E9EC
:102F900091E09CAF8BAF8BAD9CAD0197F1F79CAFEF
:102FA0008BAF8DAD9EAD01979EAF8DAF8DAD9EADBC
:102FB000009769F716C0FE01FF96608171818281DA
:102FC00093810E944900DC01CB019EAF8DAF8DAD96
:102FD0009EAD9AAF89AF89AD9AAD0197F1F79AAFDF
:102FE00089AF82E090E00E94DD0ECE01875A9F4FAC
:102FF0000E94050F80E090E0A8E4B2E48DAB9EABA8
:10300000AFABB8AF6DA97EA98FA998AD20E030E035
:103010004AE755E40E941F02DC01CB0189AB9AAB61
:10302000ABABBCAB69A97AA98BA99CA920E030E025
:1030300040E85FE30E94790388232CF481E090E06C
:1030400098AB8FA73FC069A97AA98BA99CA920E05A
:103050003FEF4FE757E40E94190318164CF56DA98E
:103060007EA98FA998AD20E030E040E251E40E94B3
:103070001F02DC01CB01BC01CD010E944900DC0133
:10308000CB0198AB8FA70FC080E991E09EA78DA7D9
:103090008DA59EA50197F1F79EA78DA78FA598A94D
:1030A000019798AB8FA78FA598A9009769F714C0CF
:1030B00069A97AA98BA99CA90E944900DC01CB01CE
:1030C00098AB8FA78FA598A99CA78BA78BA59CA52C
:1030D0000197F1F79CA78BA783E090E00E94DD0E9B
:1030E000CE01855A9F4F0E94050F80E090E0A8E432
:1030F000B2E48FA398A7A9A7BAA76FA178A589A5BD
:103100009AA520E030E04AE755E40E941F02DC0166
:10311000CB018BA39CA3ADA3BEA36BA17CA18DA16E
:103120009EA120E030E040E85FE30E94790388231D
:103130002CF481E090E09AA389A33FC06BA17CA10D
:103140008DA19EA120E03FEF4FE757E40E941903B5
:1031500018164CF56FA178A589A59AA520E030E056
:1031600040E251E40E941F02DC01CB01BC01CD0111
:103170000E944900DC01CB019AA389A30FC080E91A
:1031800091E098A38F8F8F8D98A10197F1F798A365
:103190008F8F89A19AA101979AA389A389A19AA146
:1031A000009769F714C06BA17CA18DA19EA10E941C
:1031B0004900DC01CB019AA389A389A19AA19E8F22
:1031C0008D8F8D8D9E8D0197F1F79E8F8D8F84E071
:1031D00090E00E94DD0ECE01835A9F4F0E94050FA2
:1031E00080E090E0A8E4B2E4898F9A8FAB8FBC8F27
:1031F000698D7A8D8B8D9C8D20E030E04AE755E417
:103200000E941F02DC01CB018D8B9E8BAF8BB88F90
:103210006D897E898F89988D20E030E040E85FE3FA
:103220000E94790388232CF481E090E09C8B8B8BA7
:103230003FC06D897E898F89988D20E03FEF4FE7F1
:1032400057E40E94190318164CF5698D7A8D8B8D01
:103250009C8D20E030E040E251E40E941F02DC013E
:10326000CB01BC01CD010E944900DC01CB019C8B4C
:103270008B8B0FC080E991E09A8B898B89899A8921
:103280000197F1F79A8B898B8B899C8901979C8B8D
:103290008B8B8B899C89009769F714C06D897E8917
:1032A0008F89988D0E944900DC01CB019C8B8B8B10
:1032B0008B899C89988B8F878F8598890197F1F7E7
:1032C000988B8F87FE01EB5AFF4F808191810E947E
:1032D000131480E290E00E94A713FE01E95AFF4F09
:1032E000808191810E94131480E290E00E94A713D4
:1032F000FE01E75AFF4F808191810E94131482E002
:1033000090E061E070E00E94DD13FE01E55AFF4F9E
:10331000808191810E94131480E290E00E94A713A3
:10332000FE01E35AFF4F808191810E94131480E0D7
:1033300090E0AAE7B4E48B879C87AD87BE876B8556
:103340007C858D859E8520E030E04AE755E40E942B
:103350001F02DC01CB018F839887A987BA876F8111
:10336000788589859A8520E030E040E85FE30E9417
:10337000790388232CF481E090E09E838D833FC005
:103380006F81788589859A8520E03FEF4FE757E484
:103390000E94190318164CF56B857C858D859E85DA
:1033A00020E030E040E251E40E941F02DC01CB014A
:1033B000BC01CD010E944900DC01CB019E838D83BD
:1033C0000FC080E991E09C838B838B819C81019766
:1033D000F1F79C838B838D819E8101979E838D83E2
:1033E0008D819E81009769F714C06F8178858985EA
:1033F0009A850E944900DC01CB019E838D838D81DB
:103400009E819A83898389819A810197F1F79A83B2
:10341000898381E090E00E94941399CCAA1BBB1B86
:1034200051E107C0AA1FBB1FA617B70710F0A61BC4
:10343000B70B881F991F5A95A9F780959095BC01E5
:10344000CD01089597FB092E07260AD077FD04D0F9
:10345000E5DF06D000201AF4709561957F4F08953E
:10346000F6F7909581959F4F08952F923F924F9236
:103470005F926F927F928F929F92AF92BF92CF9204
:10348000DF92EF92FF920F931F93CF93DF93CDB70D
:10349000DEB7CA1BDB0B0FB6F894DEBF0FBECDBF85
:1034A00009942A88398848885F846E847D848C8456
:1034B0009B84AA84B984C884DF80EE80FD800C815F
:1034C0001B81AA81B981CE0FD11D0FB6F894DEBF42
:0C34D0000FBECDBFED010895F894FFCFB2
:1034DC000000000000000000000F0E3738392F34B8
:0C34EC0035362A3132332D63303D2B0081
:00000001FF
