:100000000C942A000C9458010C9481010C94AA01C0
:100010000C9447000C9447000C9447000C94470044
:100020000C9447000C9447000C9447000C94470034
:100030000C9447000C9447000C9447000C94470024
:100040000C9447000C9447000C9447000C94470014
:100050000C94470011241FBECFE5D8E0DEBFCDBF12
:1000600010E0A0E6B0E0E2E6FDE002C005900D92EF
:10007000A039B107D9F710E0A0E9B0E001C01D92A6
:10008000A639B107E1F70E9411060C94AF060C9453
:10009000000080ED89B9599A8AB1886196E090BDD7
:1000A0008B7F8AB980E008955D9BFECF8CB980E09C
:1000B0000895FC015F9BFECF8CB1808380E00895A2
:1000C000FC0181E005C05D9BFECF9CB9319680E0CC
:1000D00090819923C1F70895DC01009711F481E024
:1000E000089580E008C05F9BFECF9CB1FD01E80F42
:1000F000F11D90838F5F9D30B1F7A80FB11D11974F
:100100001C9280E00895F89480E00895789480E04F
:100110000895F89480E00895FC01009711F481E0BF
:1001200008959081992319F48BB7806409C09130A8
:1001300019F48BB7806804C0923039F58BB78062B0
:100140008BBF81818F3019F48AB7806404C08031FD
:10015000E1F48AB78F7B8ABF9923B9F482818B300F
:1001600019F485B78C7F0EC08C3019F485B7816087
:1001700009C08D3019F485B7836004C08E3029F42E
:1001800085B7826085BF82E0089582E00895FC0112
:10019000009711F481E008958081882319F48BB7CA
:1001A000806404C0813029F48BB780688BBF80E005
:1001B0000895823011F082E008958BB780628BBF82
:1001C00080E00895FC01009711F481E0089580819A
:1001D000882319F48BB78F7B04C0813029F48BB747
:1001E0008F778BBF80E00895823011F082E0089510
:1001F0008BB78F7D8BBF80E00895FC0190E0309736
:1002000009F491E080818823C1F46C3069F06D308D
:1002100018F46B30D9F505C06D3049F06E30B1F58A
:1002200009C085B78C7F19C085B7816016C085B7B6
:10023000836013C085B7826010C08130C9F46C3010
:1002400071F06D3018F46B3009F505C06D3051F068
:100250006E30E1F40AC085B7837F85BF18C085B7CB
:100260008460FBCF85B78C60F8CF85B78860F5CF09
:10027000823061F46D3019F06E3041F403C084B700
:10028000806402C084B78F7B84BF01C092E0892F55
:100290000895909391008093900008959093930017
:1002A0008093920008959093950080939400089510
:1002B0001F920F920FB60F9211242F933F934F93DB
:1002C0005F936F937F938F939F93AF93BF93EF93BE
:1002D000FF93E0919000F0919100309709F009951B
:1002E000FF91EF91BF91AF919F918F917F916F910E
:1002F0005F914F913F912F910F900FBE0F901F90E4
:1003000018951F920F920FB60F9211242F933F93BF
:100310004F935F936F937F938F939F93AF93BF930D
:10032000EF93FF93E0919200F0919300309709F0E2
:100330000995FF91EF91BF91AF919F918F917F911F
:100340006F915F914F913F912F910F900FBE0F9042
:100350001F9018951F920F920FB60F9211242F9392
:100360003F934F935F936F937F938F939F93AF933D
:10037000BF93EF93FF93E0919400F0919500309735
:1003800009F00995FF91EF91BF91AF919F918F91E6
:100390007F916F915F914F913F912F910F900FBE81
:1003A0000F901F901895D09881E00895843008F040
:1003B0006DC0683008F06AC0423008F067C0813014
:1003C000F9F0813030F0823091F1833009F05CC077
:1003D00045C02AB381E090E0062E02C0880F991F25
:1003E0000A94E2F7809582238ABB2AB3842F90E097
:1003F00002C0880F991F6A95E2F7282B2ABB44C0D8
:1004000027B381E090E0062E02C0880F991F0A945E
:10041000E2F78095822387BB27B3842F90E002C048
:10042000880F991F6A95E2F7282B27BB2DC024B3AC
:1004300081E090E0062E02C0880F991F0A94E2F72F
:100440008095822384BB24B3842F90E002C0880F60
:10045000991F6A95E2F7282B24BB16C021B381E0CF
:1004600090E0062E02C0880F991F0A94E2F780954B
:10047000822381BB21B3842F90E002C0880F991F93
:100480006A95E2F7282B21BB80E0089582E0089569
:10049000843008F06DC0683008F06AC0423008F05F
:1004A00067C08130F9F0813030F0823091F18330D3
:1004B00009F05CC045C02BB381E090E0062E02C07D
:1004C000880F991F0A94E2F7809582238BBB2BB388
:1004D000842F90E002C0880F991F6A95E2F7282BBD
:1004E0002BBB44C028B381E090E0062E02C0880FE9
:1004F000991F0A94E2F78095822388BB28B3842F42
:1005000090E002C0880F991F6A95E2F7282B28BB5C
:100510002DC025B381E090E0062E02C0880F991F00
:100520000A94E2F78095822385BB25B3842F90E05F
:1005300002C0880F991F6A95E2F7282B25BB16C0C9
:1005400022B381E090E0062E02C0880F991F0A9422
:10055000E2F78095822382BB22B3842F90E002C011
:10056000880F991F6A95E2F7282B22BB80E0089537
:1005700082E008958430C0F56830B0F5813091F0A4
:10058000813028F08230C9F0833061F521C02BB36F
:1005900081E090E002C0880F991F6A95E2F7282752
:1005A0002BBB20C028B381E090E002C0880F991FC8
:1005B0006A95E2F7282728BB15C025B381E090E0B3
:1005C00002C0880F991F6A95E2F7282725BB0AC049
:1005D00022B381E090E002C0880F991F6A95E2F78C
:1005E000282722BB80E0089582E00895FA01411592
:1005F000510511F483E008958430E0F46830D0F4BC
:10060000813049F0813028F0823039F0833081F434
:1006100006C089B305C086B303C083B301C080B3ED
:1006200090E002C0959587956A95E2F78170808386
:1006300080E0089582E008951F93182F482F441FEB
:100640004427441F80E067E00E944802412F429502
:1006500046954695417080E066E00E944802412F31
:1006600042954695417080E065E00E944802412F26
:100670004295417080E064E00E94480281E063E0BE
:1006800041E00E94480281E063E040E00E944802AD
:10069000412F469546954695417080E067E00E945F
:1006A0004802412F46954695417080E066E00E94E1
:1006B0004802412F4695417080E065E00E94480263
:1006C000117080E064E0412F0E94480281E063E005
:1006D00041E00E94480281E063E040E00E9448025D
:1006E00080E01F9108950F931F93082F162F8150BC
:1006F0008230B8F46623A9F0613198F481E061E0BA
:1007000040E00E9448021158802F90E0019726E0B7
:10071000880F991F2A95E1F7810F0E941C0380E042
:1007200001C081E01F910F910895CF93DF93EC01F9
:1007300008C081E061E041E00E94480289910E9486
:100740001C0388818823A9F7DF91CF9108951F9317
:10075000182F81E061E041E00E944802812F0E9451
:100760001C0380E01F9108951F93182F81E061E022
:1007700040E00E944802812F0E941C0380E01F91EC
:1007800008954F925F926F927F928F929F92AF9255
:10079000BF92CF92DF92EF92FF920F931F93DF935E
:1007A000CF93CDB7DEB77B018C016DB67EB66115F8
:1007B00071058105910509F48FC05DB64EB697FFAE
:1007C00010C010950095F094E094E11CF11C011DFF
:1007D000111D81E061E041E00E9448028DE20E942B
:1007E0001C03C801B701DD242AE030E040E050E0FE
:1007F0000E946906C901DA01BC01CD01D3946115DB
:1008000071058105910581F78D2D90E0880F991F65
:10081000880F991F2DB73EB7281B390B0FB6F894D8
:100820003EBF0FBE2DBF8DB69EB60894811C911C95
:100830005701C02EF12E29C00D2D10E0015010409F
:10084000000F111F000F111F080D191DB5018C2D70
:100850009F2D2AE030E040E050E00E946906605D94
:100860007F4F8F4F9F4FF801608371838283938303
:10087000B5018C2D9F2D2AE030E040E050E00E9431
:1008800069065901C42EF52EDA94DD20A9F60AC0B6
:1008900081E061E041E00E944802F80180810E940D
:1008A0001C03D3940D2D10E0000F111F000F111F1A
:1008B000080D191DF80180819181A281B3810097F3
:1008C000A105B10529F7852D942D9C010FB6F8944B
:1008D0003EBF0FBE2DBF08C081E061E041E00E9435
:1008E000480280E30E941C0380E00FB6F8947EBEAD
:1008F0000FBE6DBECF91DF911F910F91FF90EF90D2
:10090000DF90CF90BF90AF909F908F907F906F902F
:100910005F904F9008950F931F938EE591E020E92B
:1009200031E0F9013197F1F70197D9F781E061E002
:1009300041E00E94D60181E062E041E00E94D601E0
:1009400081E063E041E00E94D60180E067E041E0A1
:100950000E94D60180E066E041E00E94D60180E07E
:1009600065E041E00E94D60180E064E041E00E9441
:10097000D60181E061E040E00E94480281E062E04F
:1009800040E00E94480281E063E040E00E944802AB
:1009900080E067E040E00E94480280E066E040E0DE
:1009A0000E94480280E065E041E00E94480280E049
:1009B00064E040E00E94480281E063E041E00E9480
:1009C000480200E21EE4C8010197F1F781E063E00C
:1009D00040E00E944802C8010197F1F788E20E94B6
:1009E0001C038FE00E941C0381E00E941C0386E030
:1009F0000E941C03C8010197F1F780E01F910F913D
:100A000008952F923F924F925F926F927F928F92B2
:100A10009F92AF92BF92CF92DF92EF92FF920F938D
:100A20001F93DF93CF93CDB7DEB7A1970FB6F8949E
:100A3000DEBF0FBECDBF5C0192E09A839B839C8397
:100A40009D831E8221E02F83988783E089878A8790
:100A50008B878C878D871E862F87988B84E0898B68
:100A60008FEFF5018083DE015296EFE7F0E080E141
:100A700001900D928150E1F7CC24DD242E010894E1
:100A8000411C511C90E4292E9CE9392EEAE0F0E04B
:100A9000EC0FFD1FEC0DFD1D6080EEE0F0E0EC0FB3
:100AA000FD1FEC0DFD1D7080862D672D40E00E941E
:100AB000480282E1E82EF12CEC0EFD1EEC0CFD1C30
:100AC00000E010E0E2E0F0E0EC0FFD1FE00FF11FAE
:100AD0008080E6E0F0E0EC0FFD1FE00FF11F90805A
:100AE000882D692DA2010E94F6028981882339F49C
:100AF000C1010197F1F7F7018081F50180838981B8
:100B0000882351F4F7018081F501808305C0882D89
:100B1000692DA2010E94F60289818823C1F30F5F2B
:100B20001F4F84E090E0E80EF91E0430110551F6E5
:100B3000862D672D41E00E9448020894C11CD11CFB
:100B400094E0C916D10409F0A1CF80E0A1960FB6B8
:100B5000F894DEBF0FBECDBFCF91DF911F910F91F3
:100B6000FF90EF90DF90CF90BF90AF909F908F90CD
:100B70007F906F905F904F903F902F90089582E00C
:100B800060E040E00E94D60182E061E040E00E9427
:100B9000D60182E062E040E00E94D60182E063E09C
:100BA00040E00E94D60183E060E041E00E94D6016F
:100BB00083E061E041E00E94D60183E062E041E031
:100BC0000E94D60183E064E041E00E94D60182E009
:100BD00060E041E00E94480282E061E041E00E9462
:100BE000480282E062E041E00E94480282E063E065
:100BF00041E00E94480283E060E041E00E94480238
:100C000083E061E041E00E94480283E062E041E06D
:100C10000E94480283E064E041E00E94480281E0D3
:100C200008950F931F93DF93CF93CDB7DEB76597EA
:100C30000FB6F894DEBF0FBECDBF82E060E041E0AA
:100C40000E94D60181E060E041E00E94D60182E08E
:100C500060E040E00E94480281E060E040E00E94E5
:100C600048020E948B040E94490088E490E00E94A0
:100C7000540089E690E00E9454008DE090E00E94CC
:100C8000540080E690E00E9460008E010E5F1F4FCE
:100C9000C8010E946C00C8016DE670E00E94A606C3
:100CA000009729F481E060E041E00E94480283E778
:100CB00090E00E9495038E010F5F1F4FC8010E94B4
:100CC000590089818134D1F782E060E00E94BA0244
:100CD000F5CF97FB092E05260ED057FD04D014D072
:100CE0000AD0001C38F450954095309521953F4F1F
:100CF0004F4F5F4F0895F6F79095809570956195E9
:100D00007F4F8F4F9F4F0895A1E21A2EAA1BBB1B46
:100D1000FD010DC0AA1FBB1FEE1FFF1FA217B307C7
:100D2000E407F50720F0A21BB30BE40BF50B661FDD
:100D3000771F881F991F1A9469F7609570958095A1
:100D400090959B01AC01BD01CF010895FB01DC0131
:100D50008D91019080190110D9F3990B0895F894A1
:020D6000FFCFC3
:100D620057656C636F6D65205369720D004E616447
:100D7200657200476F6F64204A6F6200000F0E3782
:100D820038392F3435362A3132332D63303D2B003A
:00000001FF
